{"contracts/ClubGov.sol":{"ClubGov":{"abi":[{"inputs":[],"stateMutability":"nonpayable","type":"constructor"},{"anonymous":false,"inputs":[{"indexed":true,"internalType":"address","name":"sender","type":"address"},{"indexed":false,"internalType":"uint256","name":"amount","type":"uint256"}],"name":"FundsReceived","type":"event"},{"anonymous":false,"inputs":[{"indexed":true,"internalType":"address","name":"member","type":"address"}],"name":"MemberAdded","type":"event"},{"anonymous":false,"inputs":[{"indexed":true,"internalType":"address","name":"member","type":"address"}],"name":"MemberRemoved","type":"event"},{"anonymous":false,"inputs":[{"indexed":true,"internalType":"uint256","name":"proposalId","type":"uint256"},{"indexed":false,"internalType":"string","name":"description","type":"string"},{"indexed":false,"internalType":"uint256","name":"amount","type":"uint256"},{"indexed":false,"internalType":"address","name":"recipient","type":"address"}],"name":"ProposalCreated","type":"event"},{"anonymous":false,"inputs":[{"indexed":true,"internalType":"uint256","name":"proposalId","type":"uint256"},{"indexed":false,"internalType":"address","name":"recipient","type":"address"},{"indexed":false,"internalType":"uint256","name":"amount","type":"uint256"}],"name":"ProposalExecuted","type":"event"},{"anonymous":false,"inputs":[{"indexed":true,"internalType":"uint256","name":"proposalId","type":"uint256"},{"indexed":true,"internalType":"address","name":"voter","type":"address"},{"indexed":false,"internalType":"bool","name":"support","type":"bool"}],"name":"VoteCast","type":"event"},{"stateMutability":"payable","type":"fallback"},{"inputs":[{"internalType":"address","name":"_member","type":"address"}],"name":"addMember","outputs":[],"stateMutability":"nonpayable","type":"function"},{"inputs":[{"internalType":"uint256","name":"_proposalId","type":"uint256"}],"name":"cancelProposal","outputs":[],"stateMutability":"nonpayable","type":"function"},{"inputs":[{"internalType":"string","name":"_description","type":"string"},{"internalType":"uint256","name":"_amount","type":"uint256"},{"internalType":"address payable","name":"_recipient","type":"address"}],"name":"createProposal","outputs":[{"internalType":"uint256","name":"","type":"uint256"}],"stateMutability":"nonpayable","type":"function"},{"inputs":[{"internalType":"uint256","name":"_proposalId","type":"uint256"}],"name":"executeProposal","outputs":[],"stateMutability":"nonpayable","type":"function"},{"inputs":[{"internalType":"uint256","name":"_proposalId","type":"uint256"}],"name":"getProposal","outputs":[{"internalType":"uint256","name":"id","type":"uint256"},{"internalType":"string","name":"description","type":"string"},{"internalType":"uint256","name":"amount","type":"uint256"},{"internalType":"address","name":"recipient","type":"address"},{"internalType":"uint256","name":"yesVotes","type":"uint256"},{"internalType":"uint256","name":"noVotes","type":"uint256"},{"internalType":"bool","name":"executed","type":"bool"},{"internalType":"bool","name":"active","type":"bool"}],"stateMutability":"view","type":"function"},{"inputs":[],"name":"getRequiredVotes","outputs":[{"internalType":"uint256","name":"","type":"uint256"}],"stateMutability":"view","type":"function"},{"inputs":[],"name":"getTreasuryBalance","outputs":[{"internalType":"uint256","name":"","type":"uint256"}],"stateMutability":"view","type":"function"},{"inputs":[{"internalType":"uint256","name":"_proposalId","type":"uint256"},{"internalType":"address","name":"_voter","type":"address"}],"name":"hasVoted","outputs":[{"internalType":"bool","name":"","type":"bool"}],"stateMutability":"view","type":"function"},{"inputs":[{"internalType":"address","name":"_address","type":"address"}],"name":"isMember","outputs":[{"internalType":"bool","name":"","type":"bool"}],"stateMutability":"view","type":"function"},{"inputs":[],"name":"memberCount","outputs":[{"internalType":"uint256","name":"","type":"uint256"}],"stateMutability":"view","type":"function"},{"inputs":[{"internalType":"address","name":"","type":"address"}],"name":"members","outputs":[{"internalType":"bool","name":"","type":"bool"}],"stateMutability":"view","type":"function"},{"inputs":[],"name":"owner","outputs":[{"internalType":"address","name":"","type":"address"}],"stateMutability":"view","type":"function"},{"inputs":[],"name":"proposalCount","outputs":[{"internalType":"uint256","name":"","type":"uint256"}],"stateMutability":"view","type":"function"},{"inputs":[{"internalType":"uint256","name":"","type":"uint256"}],"name":"proposals","outputs":[{"internalType":"uint256","name":"id","type":"uint256"},{"internalType":"string","name":"description","type":"string"},{"internalType":"uint256","name":"amount","type":"uint256"},{"internalType":"address payable","name":"recipient","type":"address"},{"internalType":"uint256","name":"yesVotes","type":"uint256"},{"internalType":"uint256","name":"noVotes","type":"uint256"},{"internalType":"bool","name":"executed","type":"bool"},{"internalType":"bool","name":"active","type":"bool"}],"stateMutability":"view","type":"function"},{"inputs":[{"internalType":"address","name":"_member","type":"address"}],"name":"removeMember","outputs":[],"stateMutability":"nonpayable","type":"function"},{"inputs":[{"internalType":"uint256","name":"_proposalId","type":"uint256"},{"internalType":"bool","name":"_support","type":"bool"}],"name":"vote","outputs":[],"stateMutability":"nonpayable","type":"function"},{"stateMutability":"payable","type":"receive"}],"evm":{"bytecode":{"linkReferences":{},"object":"6080604052348015600f57600080fd5b50600080546001600160a01b0319163390811782558152600360205260409020805460ff1916600190811790915580556115b68061004e6000396000f3fe6080604052600436106100f75760003560e01c80638da5cb5b1161008a578063c9d27afe11610059578063c9d27afe14610342578063ca6d56dc14610362578063da35c66414610382578063e0a8f6f51461039857610134565b80638da5cb5b1461029e5780639b5655dc146102d6578063a230c524146102e9578063c7f758a81461032257610134565b806311aee380116100c657806311aee3801461022557806343859632146102495780636ac1e01f146102695780637b788b7f1461028957610134565b8063013cf08b1461016657806308ae4b0c146101a35780630b1ca49a146101e35780630d61b5191461020557610134565b366101345760405134815233907f8e47b87b0ef542cdfa1659c551d88bad38aa7f452d2bbb349ab7530dfec8be8f906020015b60405180910390a2005b60405134815233907f8e47b87b0ef542cdfa1659c551d88bad38aa7f452d2bbb349ab7530dfec8be8f9060200161012a565b34801561017257600080fd5b5061018661018136600461104e565b6103b8565b60405161019a9897969594939291906110ad565b60405180910390f35b3480156101af57600080fd5b506101d36101be36600461111f565b60036020526000908152604090205460ff1681565b604051901515815260200161019a565b3480156101ef57600080fd5b506102036101fe36600461111f565b610492565b005b34801561021157600080fd5b5061020361022036600461104e565b6105da565b34801561023157600080fd5b5061023b60015481565b60405190815260200161019a565b34801561025557600080fd5b506101d3610264366004611143565b6108ae565b34801561027557600080fd5b5061023b610284366004611199565b610903565b34801561029557600080fd5b5061023b610b2f565b3480156102aa57600080fd5b506000546102be906001600160a01b031681565b6040516001600160a01b03909116815260200161019a565b3480156102e257600080fd5b504761023b565b3480156102f557600080fd5b506101d361030436600461111f565b6001600160a01b031660009081526003602052604090205460ff1690565b34801561032e57600080fd5b5061018661033d36600461104e565b610b64565b34801561034e57600080fd5b5061020361035d366004611269565b610c8c565b34801561036e57600080fd5b5061020361037d36600461111f565b610e1a565b34801561038e57600080fd5b5061023b60025481565b3480156103a457600080fd5b506102036103b336600461104e565b610f56565b600460205260009081526040902080546001820180549192916103da90611293565b80601f016020809104026020016040519081016040528092919081815260200182805461040690611293565b80156104535780601f1061042857610100808354040283529160200191610453565b820191906000526020600020905b81548152906001019060200180831161043657829003601f168201915b5050506002840154600385015460048601546005870154600690970154959692956001600160a01b039092169450925060ff8082169161010090041688565b6000546001600160a01b031633146104c55760405162461bcd60e51b81526004016104bc906112cd565b60405180910390fd5b6001600160a01b03811660009081526003602052604090205460ff1661051c5760405162461bcd60e51b815260206004820152600c60248201526b2737ba10309036b2b6b132b960a11b60448201526064016104bc565b6000546001600160a01b03908116908216036105705760405162461bcd60e51b815260206004820152601360248201527221b0b73737ba103932b6b7bb329037bbb732b960691b60448201526064016104bc565b6001600160a01b0381166000908152600360205260408120805460ff19169055600180549161059e83611325565b90915550506040516001600160a01b038216907f6e76fb4c77256006d9c38ec7d82b45a8c8f3c27b1d6766fffc42dfb8de68449290600090a250565b3360009081526003602052604090205460ff166106095760405162461bcd60e51b81526004016104bc9061133c565b80600254811061062b5760405162461bcd60e51b81526004016104bc90611380565b6000828152600460205260409020600601548290610100900460ff166106635760405162461bcd60e51b81526004016104bc906113b7565b6000838152600460205260409020600681015460ff16156106c65760405162461bcd60e51b815260206004820152601960248201527f50726f706f73616c20616c72656164792065786563757465640000000000000060448201526064016104bc565b806002015447101561071a5760405162461bcd60e51b815260206004820152601d60248201527f496e73756666696369656e742074726561737572792062616c616e636500000060448201526064016104bc565b60006064600154603361072d91906113e7565b6107379190611404565b905080600003610745575060015b80826004015410156107ab5760405162461bcd60e51b815260206004820152602960248201527f50726f706f73616c20686173206e6f74207265616368656420766f74696e67206044820152681d1a1c995cda1bdb1960ba1b60648201526084016104bc565b60068201805461ffff19166001179055600382015460028301546040516000926001600160a01b031691908381818185875af1925050503d806000811461080e576040519150601f19603f3d011682016040523d82523d6000602084013e610813565b606091505b50509050806108565760405162461bcd60e51b815260206004820152600f60248201526e151c985b9cd9995c8819985a5b1959608a1b60448201526064016104bc565b60038301546002840154604080516001600160a01b039093168352602083019190915287917f3b7c90df35b419337cff0919fe91849006607bb66c4373623f06f9d48c1ebb98910160405180910390a2505050505050565b60008260025481106108d25760405162461bcd60e51b81526004016104bc90611380565b505060009182526004602090815260408084206001600160a01b039390931684526007909201905290205460ff1690565b3360009081526003602052604081205460ff166109325760405162461bcd60e51b81526004016104bc9061133c565b6001600160a01b03821661097c5760405162461bcd60e51b8152602060048201526011602482015270125b9d985b1a59081c9958da5c1a595b9d607a1b60448201526064016104bc565b600083116109cc5760405162461bcd60e51b815260206004820152601d60248201527f416d6f756e74206d7573742062652067726561746572207468616e203000000060448201526064016104bc565b47831115610a1c5760405162461bcd60e51b815260206004820152601d60248201527f496e73756666696369656e742074726561737572792062616c616e636500000060448201526064016104bc565b6000845111610a6d5760405162461bcd60e51b815260206004820152601b60248201527f4465736372697074696f6e2063616e6e6f7420626520656d707479000000000060448201526064016104bc565b600254600081815260046020526040902081815560018101610a8f8782611475565b5060028082018690556003820180546001600160a01b0387166001600160a01b03199091161790556000600483018190556005830181905560068301805461ffff191661010017905581549190610ae583611534565b9190505550817f98504bc76d855fac343248bdddc062a45d467777dd16a83e57e505f8121562f3878787604051610b1e9392919061154d565b60405180910390a250949350505050565b60008060646001546033610b4391906113e7565b610b4d9190611404565b90508015610b5b5780610b5e565b60015b91505090565b60006060600080600080600080886002548110610b935760405162461bcd60e51b81526004016104bc90611380565b60008a815260046020819052604090912080546002820154600383015493830154600584015460068501546001860180549697959690956001600160a01b031693929160ff8082169261010090920416908790610bef90611293565b80601f0160208091040260200160405190810160405280929190818152602001828054610c1b90611293565b8015610c685780601f10610c3d57610100808354040283529160200191610c68565b820191906000526020600020905b815481529060010190602001808311610c4b57829003601f168201915b50505050509650995099509950995099509950995099505050919395975091939597565b3360009081526003602052604090205460ff16610cbb5760405162461bcd60e51b81526004016104bc9061133c565b816002548110610cdd5760405162461bcd60e51b81526004016104bc90611380565b6000838152600460205260409020600601548390610100900460ff16610d155760405162461bcd60e51b81526004016104bc906113b7565b6000848152600460209081526040808320338452600781019092529091205460ff1615610d845760405162461bcd60e51b815260206004820152601e60248201527f416c726561647920766f746564206f6e20746869732070726f706f73616c000060448201526064016104bc565b3360009081526007820160205260409020805460ff191660011790558315610dc257600481018054906000610db883611534565b9190505550610dda565b600581018054906000610dd483611534565b91905055505b6040518415158152339086907fe71fcdac32df1877c1700e7bda2a03157e20993363a28fc35ac495cefc76e4d49060200160405180910390a35050505050565b6000546001600160a01b03163314610e445760405162461bcd60e51b81526004016104bc906112cd565b6001600160a01b038116610e8c5760405162461bcd60e51b815260206004820152600f60248201526e496e76616c6964206164647265737360881b60448201526064016104bc565b6001600160a01b03811660009081526003602052604090205460ff1615610ee85760405162461bcd60e51b815260206004820152601060248201526f20b63932b0b23c90309036b2b6b132b960811b60448201526064016104bc565b6001600160a01b0381166000908152600360205260408120805460ff19166001908117909155805491610f1a83611534565b90915550506040516001600160a01b038216907fb251eb052afc73ffd02ffe85ad79990a8b3fed60d76dbc2fa2fdd7123dffd91490600090a250565b6000546001600160a01b03163314610f805760405162461bcd60e51b81526004016104bc906112cd565b806002548110610fa25760405162461bcd60e51b81526004016104bc90611380565b6000828152600460205260409020600601548290610100900460ff16610fda5760405162461bcd60e51b81526004016104bc906113b7565b6000838152600460205260409020600681015460ff161561103d5760405162461bcd60e51b815260206004820152601f60248201527f43616e6e6f742063616e63656c2065786563757465642070726f706f73616c0060448201526064016104bc565b600601805461ff0019169055505050565b60006020828403121561106057600080fd5b5035919050565b6000815180845260005b8181101561108d57602081850181015186830182015201611071565b506000602082860101526020601f19601f83011685010191505092915050565b888152610100602082015260006110c861010083018a611067565b6040830198909852506001600160a01b03959095166060860152608085019390935260a0840191909152151560c0830152151560e09091015292915050565b6001600160a01b038116811461111c57600080fd5b50565b60006020828403121561113157600080fd5b813561113c81611107565b9392505050565b6000806040838503121561115657600080fd5b82359150602083013561116881611107565b809150509250929050565b634e487b7160e01b600052604160045260246000fd5b803561119481611107565b919050565b6000806000606084860312156111ae57600080fd5b833567ffffffffffffffff8111156111c557600080fd5b8401601f810186136111d657600080fd5b803567ffffffffffffffff8111156111f0576111f0611173565b604051601f8201601f19908116603f0116810167ffffffffffffffff8111828210171561121f5761121f611173565b60405281815282820160200188101561123757600080fd5b816020840160208301376000602092820183015294508501359250611260905060408501611189565b90509250925092565b6000806040838503121561127c57600080fd5b823591506020830135801515811461116857600080fd5b600181811c908216806112a757607f821691505b6020821081036112c757634e487b7160e01b600052602260045260246000fd5b50919050565b60208082526022908201527f4f6e6c79206f776e65722063616e20706572666f726d2074686973206163746960408201526137b760f11b606082015260800190565b634e487b7160e01b600052601160045260246000fd5b6000816113345761133461130f565b506000190190565b60208082526024908201527f4f6e6c79206d656d626572732063616e20706572666f726d20746869732061636040820152633a34b7b760e11b606082015260800190565b60208082526017908201527f50726f706f73616c20646f6573206e6f74206578697374000000000000000000604082015260600190565b60208082526016908201527550726f706f73616c206973206e6f742061637469766560501b604082015260600190565b80820281158282048414176113fe576113fe61130f565b92915050565b60008261142157634e487b7160e01b600052601260045260246000fd5b500490565b601f82111561147057806000526020600020601f840160051c8101602085101561144d5750805b601f840160051c820191505b8181101561146d5760008155600101611459565b50505b505050565b815167ffffffffffffffff81111561148f5761148f611173565b6114a38161149d8454611293565b84611426565b6020601f8211600181146114d757600083156114bf5750848201515b600019600385901b1c1916600184901b17845561146d565b600084815260208120601f198516915b8281101561150757878501518255602094850194600190920191016114e7565b50848210156115255786840151600019600387901b60f8161c191681555b50505050600190811b01905550565b6000600182016115465761154661130f565b5060010190565b6060815260006115606060830186611067565b6020830194909452506001600160a01b039190911660409091015291905056fea26469706673582212203264173a49a62048421640afab77f81e204b3fadab09ba791851d8dbaac23ce664736f6c634300081c0033","opcodes":"PUSH1 0x80 PUSH1 0x40 MSTORE CALLVALUE DUP1 ISZERO PUSH1 0xF JUMPI PUSH1 0x0 DUP1 REVERT JUMPDEST POP PUSH1 0x0 DUP1 SLOAD PUSH1 0x1 PUSH1 0x1 PUSH1 0xA0 SHL SUB NOT AND CALLER SWAP1 DUP2 OR DUP3 SSTORE DUP2 MSTORE PUSH1 0x3 PUSH1 0x20 MSTORE PUSH1 0x40 SWAP1 KECCAK256 DUP1 SLOAD PUSH1 0xFF NOT AND PUSH1 0x1 SWAP1 DUP2 OR SWAP1 SWAP2 SSTORE DUP1 SSTORE PUSH2 0x15B6 DUP1 PUSH2 0x4E PUSH1 0x0 CODECOPY PUSH1 0x0 RETURN INVALID PUSH1 0x80 PUSH1 0x40 MSTORE PUSH1 0x4 CALLDATASIZE LT PUSH2 0xF7 JUMPI PUSH1 0x0 CALLDATALOAD PUSH1 0xE0 SHR DUP1 PUSH4 0x8DA5CB5B GT PUSH2 0x8A JUMPI DUP1 PUSH4 0xC9D27AFE GT PUSH2 0x59 JUMPI DUP1 PUSH4 0xC9D27AFE EQ PUSH2 0x342 JUMPI DUP1 PUSH4 0xCA6D56DC EQ PUSH2 0x362 JUMPI DUP1 PUSH4 0xDA35C664 EQ PUSH2 0x382 JUMPI DUP1 PUSH4 0xE0A8F6F5 EQ PUSH2 0x398 JUMPI PUSH2 0x134 JUMP JUMPDEST DUP1 PUSH4 0x8DA5CB5B EQ PUSH2 0x29E JUMPI DUP1 PUSH4 0x9B5655DC EQ PUSH2 0x2D6 JUMPI DUP1 PUSH4 0xA230C524 EQ PUSH2 0x2E9 JUMPI DUP1 PUSH4 0xC7F758A8 EQ PUSH2 0x322 JUMPI PUSH2 0x134 JUMP JUMPDEST DUP1 PUSH4 0x11AEE380 GT PUSH2 0xC6 JUMPI DUP1 PUSH4 0x11AEE380 EQ PUSH2 0x225 JUMPI DUP1 PUSH4 0x43859632 EQ PUSH2 0x249 JUMPI DUP1 PUSH4 0x6AC1E01F EQ PUSH2 0x269 JUMPI DUP1 PUSH4 0x7B788B7F EQ PUSH2 0x289 JUMPI PUSH2 0x134 JUMP JUMPDEST DUP1 PUSH4 0x13CF08B EQ PUSH2 0x166 JUMPI DUP1 PUSH4 0x8AE4B0C EQ PUSH2 0x1A3 JUMPI DUP1 PUSH4 0xB1CA49A EQ PUSH2 0x1E3 JUMPI DUP1 PUSH4 0xD61B519 EQ PUSH2 0x205 JUMPI PUSH2 0x134 JUMP JUMPDEST CALLDATASIZE PUSH2 0x134 JUMPI PUSH1 0x40 MLOAD CALLVALUE DUP2 MSTORE CALLER SWAP1 PUSH32 0x8E47B87B0EF542CDFA1659C551D88BAD38AA7F452D2BBB349AB7530DFEC8BE8F SWAP1 PUSH1 0x20 ADD JUMPDEST PUSH1 0x40 MLOAD DUP1 SWAP2 SUB SWAP1 LOG2 STOP JUMPDEST PUSH1 0x40 MLOAD CALLVALUE DUP2 MSTORE CALLER SWAP1 PUSH32 0x8E47B87B0EF542CDFA1659C551D88BAD38AA7F452D2BBB349AB7530DFEC8BE8F SWAP1 PUSH1 0x20 ADD PUSH2 0x12A JUMP JUMPDEST CALLVALUE DUP1 ISZERO PUSH2 0x172 JUMPI PUSH1 0x0 DUP1 REVERT JUMPDEST POP PUSH2 0x186 PUSH2 0x181 CALLDATASIZE PUSH1 0x4 PUSH2 0x104E JUMP JUMPDEST PUSH2 0x3B8 JUMP JUMPDEST PUSH1 0x40 MLOAD PUSH2 0x19A SWAP9 SWAP8 SWAP7 SWAP6 SWAP5 SWAP4 SWAP3 SWAP2 SWAP1 PUSH2 0x10AD JUMP JUMPDEST PUSH1 0x40 MLOAD DUP1 SWAP2 SUB SWAP1 RETURN JUMPDEST CALLVALUE DUP1 ISZERO PUSH2 0x1AF JUMPI PUSH1 0x0 DUP1 REVERT JUMPDEST POP PUSH2 0x1D3 PUSH2 0x1BE CALLDATASIZE PUSH1 0x4 PUSH2 0x111F JUMP JUMPDEST PUSH1 0x3 PUSH1 0x20 MSTORE PUSH1 0x0 SWAP1 DUP2 MSTORE PUSH1 0x40 SWAP1 KECCAK256 SLOAD PUSH1 0xFF AND DUP2 JUMP JUMPDEST PUSH1 0x40 MLOAD SWAP1 ISZERO ISZERO DUP2 MSTORE PUSH1 0x20 ADD PUSH2 0x19A JUMP JUMPDEST CALLVALUE DUP1 ISZERO PUSH2 0x1EF JUMPI PUSH1 0x0 DUP1 REVERT JUMPDEST POP PUSH2 0x203 PUSH2 0x1FE CALLDATASIZE PUSH1 0x4 PUSH2 0x111F JUMP JUMPDEST PUSH2 0x492 JUMP JUMPDEST STOP JUMPDEST CALLVALUE DUP1 ISZERO PUSH2 0x211 JUMPI PUSH1 0x0 DUP1 REVERT JUMPDEST POP PUSH2 0x203 PUSH2 0x220 CALLDATASIZE PUSH1 0x4 PUSH2 0x104E JUMP JUMPDEST PUSH2 0x5DA JUMP JUMPDEST CALLVALUE DUP1 ISZERO PUSH2 0x231 JUMPI PUSH1 0x0 DUP1 REVERT JUMPDEST POP PUSH2 0x23B PUSH1 0x1 SLOAD DUP2 JUMP JUMPDEST PUSH1 0x40 MLOAD SWAP1 DUP2 MSTORE PUSH1 0x20 ADD PUSH2 0x19A JUMP JUMPDEST CALLVALUE DUP1 ISZERO PUSH2 0x255 JUMPI PUSH1 0x0 DUP1 REVERT JUMPDEST POP PUSH2 0x1D3 PUSH2 0x264 CALLDATASIZE PUSH1 0x4 PUSH2 0x1143 JUMP JUMPDEST PUSH2 0x8AE JUMP JUMPDEST CALLVALUE DUP1 ISZERO PUSH2 0x275 JUMPI PUSH1 0x0 DUP1 REVERT JUMPDEST POP PUSH2 0x23B PUSH2 0x284 CALLDATASIZE PUSH1 0x4 PUSH2 0x1199 JUMP JUMPDEST PUSH2 0x903 JUMP JUMPDEST CALLVALUE DUP1 ISZERO PUSH2 0x295 JUMPI PUSH1 0x0 DUP1 REVERT JUMPDEST POP PUSH2 0x23B PUSH2 0xB2F JUMP JUMPDEST CALLVALUE DUP1 ISZERO PUSH2 0x2AA JUMPI PUSH1 0x0 DUP1 REVERT JUMPDEST POP PUSH1 0x0 SLOAD PUSH2 0x2BE SWAP1 PUSH1 0x1 PUSH1 0x1 PUSH1 0xA0 SHL SUB AND DUP2 JUMP JUMPDEST PUSH1 0x40 MLOAD PUSH1 0x1 PUSH1 0x1 PUSH1 0xA0 SHL SUB SWAP1 SWAP2 AND DUP2 MSTORE PUSH1 0x20 ADD PUSH2 0x19A JUMP JUMPDEST CALLVALUE DUP1 ISZERO PUSH2 0x2E2 JUMPI PUSH1 0x0 DUP1 REVERT JUMPDEST POP SELFBALANCE PUSH2 0x23B JUMP JUMPDEST CALLVALUE DUP1 ISZERO PUSH2 0x2F5 JUMPI PUSH1 0x0 DUP1 REVERT JUMPDEST POP PUSH2 0x1D3 PUSH2 0x304 CALLDATASIZE PUSH1 0x4 PUSH2 0x111F JUMP JUMPDEST PUSH1 0x1 PUSH1 0x1 PUSH1 0xA0 SHL SUB AND PUSH1 0x0 SWAP1 DUP2 MSTORE PUSH1 0x3 PUSH1 0x20 MSTORE PUSH1 0x40 SWAP1 KECCAK256 SLOAD PUSH1 0xFF AND SWAP1 JUMP JUMPDEST CALLVALUE DUP1 ISZERO PUSH2 0x32E JUMPI PUSH1 0x0 DUP1 REVERT JUMPDEST POP PUSH2 0x186 PUSH2 0x33D CALLDATASIZE PUSH1 0x4 PUSH2 0x104E JUMP JUMPDEST PUSH2 0xB64 JUMP JUMPDEST CALLVALUE DUP1 ISZERO PUSH2 0x34E JUMPI PUSH1 0x0 DUP1 REVERT JUMPDEST POP PUSH2 0x203 PUSH2 0x35D CALLDATASIZE PUSH1 0x4 PUSH2 0x1269 JUMP JUMPDEST PUSH2 0xC8C JUMP JUMPDEST CALLVALUE DUP1 ISZERO PUSH2 0x36E JUMPI PUSH1 0x0 DUP1 REVERT JUMPDEST POP PUSH2 0x203 PUSH2 0x37D CALLDATASIZE PUSH1 0x4 PUSH2 0x111F JUMP JUMPDEST PUSH2 0xE1A JUMP JUMPDEST CALLVALUE DUP1 ISZERO PUSH2 0x38E JUMPI PUSH1 0x0 DUP1 REVERT JUMPDEST POP PUSH2 0x23B PUSH1 0x2 SLOAD DUP2 JUMP JUMPDEST CALLVALUE DUP1 ISZERO PUSH2 0x3A4 JUMPI PUSH1 0x0 DUP1 REVERT JUMPDEST POP PUSH2 0x203 PUSH2 0x3B3 CALLDATASIZE PUSH1 0x4 PUSH2 0x104E JUMP JUMPDEST PUSH2 0xF56 JUMP JUMPDEST PUSH1 0x4 PUSH1 0x20 MSTORE PUSH1 0x0 SWAP1 DUP2 MSTORE PUSH1 0x40 SWAP1 KECCAK256 DUP1 SLOAD PUSH1 0x1 DUP3 ADD DUP1 SLOAD SWAP2 SWAP3 SWAP2 PUSH2 0x3DA SWAP1 PUSH2 0x1293 JUMP JUMPDEST DUP1 PUSH1 0x1F ADD PUSH1 0x20 DUP1 SWAP2 DIV MUL PUSH1 0x20 ADD PUSH1 0x40 MLOAD SWAP1 DUP2 ADD PUSH1 0x40 MSTORE DUP1 SWAP3 SWAP2 SWAP1 DUP2 DUP2 MSTORE PUSH1 0x20 ADD DUP3 DUP1 SLOAD PUSH2 0x406 SWAP1 PUSH2 0x1293 JUMP JUMPDEST DUP1 ISZERO PUSH2 0x453 JUMPI DUP1 PUSH1 0x1F LT PUSH2 0x428 JUMPI PUSH2 0x100 DUP1 DUP4 SLOAD DIV MUL DUP4 MSTORE SWAP2 PUSH1 0x20 ADD SWAP2 PUSH2 0x453 JUMP JUMPDEST DUP3 ADD SWAP2 SWAP1 PUSH1 0x0 MSTORE PUSH1 0x20 PUSH1 0x0 KECCAK256 SWAP1 JUMPDEST DUP2 SLOAD DUP2 MSTORE SWAP1 PUSH1 0x1 ADD SWAP1 PUSH1 0x20 ADD DUP1 DUP4 GT PUSH2 0x436 JUMPI DUP3 SWAP1 SUB PUSH1 0x1F AND DUP3 ADD SWAP2 JUMPDEST POP POP POP PUSH1 0x2 DUP5 ADD SLOAD PUSH1 0x3 DUP6 ADD SLOAD PUSH1 0x4 DUP7 ADD SLOAD PUSH1 0x5 DUP8 ADD SLOAD PUSH1 0x6 SWAP1 SWAP8 ADD SLOAD SWAP6 SWAP7 SWAP3 SWAP6 PUSH1 0x1 PUSH1 0x1 PUSH1 0xA0 SHL SUB SWAP1 SWAP3 AND SWAP5 POP SWAP3 POP PUSH1 0xFF DUP1 DUP3 AND SWAP2 PUSH2 0x100 SWAP1 DIV AND DUP9 JUMP JUMPDEST PUSH1 0x0 SLOAD PUSH1 0x1 PUSH1 0x1 PUSH1 0xA0 SHL SUB AND CALLER EQ PUSH2 0x4C5 JUMPI PUSH1 0x40 MLOAD PUSH3 0x461BCD PUSH1 0xE5 SHL DUP2 MSTORE PUSH1 0x4 ADD PUSH2 0x4BC SWAP1 PUSH2 0x12CD JUMP JUMPDEST PUSH1 0x40 MLOAD DUP1 SWAP2 SUB SWAP1 REVERT JUMPDEST PUSH1 0x1 PUSH1 0x1 PUSH1 0xA0 SHL SUB DUP2 AND PUSH1 0x0 SWAP1 DUP2 MSTORE PUSH1 0x3 PUSH1 0x20 MSTORE PUSH1 0x40 SWAP1 KECCAK256 SLOAD PUSH1 0xFF AND PUSH2 0x51C JUMPI PUSH1 0x40 MLOAD PUSH3 0x461BCD PUSH1 0xE5 SHL DUP2 MSTORE PUSH1 0x20 PUSH1 0x4 DUP3 ADD MSTORE PUSH1 0xC PUSH1 0x24 DUP3 ADD MSTORE PUSH12 0x2737BA10309036B2B6B132B9 PUSH1 0xA1 SHL PUSH1 0x44 DUP3 ADD MSTORE PUSH1 0x64 ADD PUSH2 0x4BC JUMP JUMPDEST PUSH1 0x0 SLOAD PUSH1 0x1 PUSH1 0x1 PUSH1 0xA0 SHL SUB SWAP1 DUP2 AND SWAP1 DUP3 AND SUB PUSH2 0x570 JUMPI PUSH1 0x40 MLOAD PUSH3 0x461BCD PUSH1 0xE5 SHL DUP2 MSTORE PUSH1 0x20 PUSH1 0x4 DUP3 ADD MSTORE PUSH1 0x13 PUSH1 0x24 DUP3 ADD MSTORE PUSH19 0x21B0B73737BA103932B6B7BB329037BBB732B9 PUSH1 0x69 SHL PUSH1 0x44 DUP3 ADD MSTORE PUSH1 0x64 ADD PUSH2 0x4BC JUMP JUMPDEST PUSH1 0x1 PUSH1 0x1 PUSH1 0xA0 SHL SUB DUP2 AND PUSH1 0x0 SWAP1 DUP2 MSTORE PUSH1 0x3 PUSH1 0x20 MSTORE PUSH1 0x40 DUP2 KECCAK256 DUP1 SLOAD PUSH1 0xFF NOT AND SWAP1 SSTORE PUSH1 0x1 DUP1 SLOAD SWAP2 PUSH2 0x59E DUP4 PUSH2 0x1325 JUMP JUMPDEST SWAP1 SWAP2 SSTORE POP POP PUSH1 0x40 MLOAD PUSH1 0x1 PUSH1 0x1 PUSH1 0xA0 SHL SUB DUP3 AND SWAP1 PUSH32 0x6E76FB4C77256006D9C38EC7D82B45A8C8F3C27B1D6766FFFC42DFB8DE684492 SWAP1 PUSH1 0x0 SWAP1 LOG2 POP JUMP JUMPDEST CALLER PUSH1 0x0 SWAP1 DUP2 MSTORE PUSH1 0x3 PUSH1 0x20 MSTORE PUSH1 0x40 SWAP1 KECCAK256 SLOAD PUSH1 0xFF AND PUSH2 0x609 JUMPI PUSH1 0x40 MLOAD PUSH3 0x461BCD PUSH1 0xE5 SHL DUP2 MSTORE PUSH1 0x4 ADD PUSH2 0x4BC SWAP1 PUSH2 0x133C JUMP JUMPDEST DUP1 PUSH1 0x2 SLOAD DUP2 LT PUSH2 0x62B JUMPI PUSH1 0x40 MLOAD PUSH3 0x461BCD PUSH1 0xE5 SHL DUP2 MSTORE PUSH1 0x4 ADD PUSH2 0x4BC SWAP1 PUSH2 0x1380 JUMP JUMPDEST PUSH1 0x0 DUP3 DUP2 MSTORE PUSH1 0x4 PUSH1 0x20 MSTORE PUSH1 0x40 SWAP1 KECCAK256 PUSH1 0x6 ADD SLOAD DUP3 SWAP1 PUSH2 0x100 SWAP1 DIV PUSH1 0xFF AND PUSH2 0x663 JUMPI PUSH1 0x40 MLOAD PUSH3 0x461BCD PUSH1 0xE5 SHL DUP2 MSTORE PUSH1 0x4 ADD PUSH2 0x4BC SWAP1 PUSH2 0x13B7 JUMP JUMPDEST PUSH1 0x0 DUP4 DUP2 MSTORE PUSH1 0x4 PUSH1 0x20 MSTORE PUSH1 0x40 SWAP1 KECCAK256 PUSH1 0x6 DUP2 ADD SLOAD PUSH1 0xFF AND ISZERO PUSH2 0x6C6 JUMPI PUSH1 0x40 MLOAD PUSH3 0x461BCD PUSH1 0xE5 SHL DUP2 MSTORE PUSH1 0x20 PUSH1 0x4 DUP3 ADD MSTORE PUSH1 0x19 PUSH1 0x24 DUP3 ADD MSTORE PUSH32 0x50726F706F73616C20616C726561647920657865637574656400000000000000 PUSH1 0x44 DUP3 ADD MSTORE PUSH1 0x64 ADD PUSH2 0x4BC JUMP JUMPDEST DUP1 PUSH1 0x2 ADD SLOAD SELFBALANCE LT ISZERO PUSH2 0x71A JUMPI PUSH1 0x40 MLOAD PUSH3 0x461BCD PUSH1 0xE5 SHL DUP2 MSTORE PUSH1 0x20 PUSH1 0x4 DUP3 ADD MSTORE PUSH1 0x1D PUSH1 0x24 DUP3 ADD MSTORE PUSH32 0x496E73756666696369656E742074726561737572792062616C616E6365000000 PUSH1 0x44 DUP3 ADD MSTORE PUSH1 0x64 ADD PUSH2 0x4BC JUMP JUMPDEST PUSH1 0x0 PUSH1 0x64 PUSH1 0x1 SLOAD PUSH1 0x33 PUSH2 0x72D SWAP2 SWAP1 PUSH2 0x13E7 JUMP JUMPDEST PUSH2 0x737 SWAP2 SWAP1 PUSH2 0x1404 JUMP JUMPDEST SWAP1 POP DUP1 PUSH1 0x0 SUB PUSH2 0x745 JUMPI POP PUSH1 0x1 JUMPDEST DUP1 DUP3 PUSH1 0x4 ADD SLOAD LT ISZERO PUSH2 0x7AB JUMPI PUSH1 0x40 MLOAD PUSH3 0x461BCD PUSH1 0xE5 SHL DUP2 MSTORE PUSH1 0x20 PUSH1 0x4 DUP3 ADD MSTORE PUSH1 0x29 PUSH1 0x24 DUP3 ADD MSTORE PUSH32 0x50726F706F73616C20686173206E6F74207265616368656420766F74696E6720 PUSH1 0x44 DUP3 ADD MSTORE PUSH9 0x1D1A1C995CDA1BDB19 PUSH1 0xBA SHL PUSH1 0x64 DUP3 ADD MSTORE PUSH1 0x84 ADD PUSH2 0x4BC JUMP JUMPDEST PUSH1 0x6 DUP3 ADD DUP1 SLOAD PUSH2 0xFFFF NOT AND PUSH1 0x1 OR SWAP1 SSTORE PUSH1 0x3 DUP3 ADD SLOAD PUSH1 0x2 DUP4 ADD SLOAD PUSH1 0x40 MLOAD PUSH1 0x0 SWAP3 PUSH1 0x1 PUSH1 0x1 PUSH1 0xA0 SHL SUB AND SWAP2 SWAP1 DUP4 DUP2 DUP2 DUP2 DUP6 DUP8 GAS CALL SWAP3 POP POP POP RETURNDATASIZE DUP1 PUSH1 0x0 DUP2 EQ PUSH2 0x80E JUMPI PUSH1 0x40 MLOAD SWAP2 POP PUSH1 0x1F NOT PUSH1 0x3F RETURNDATASIZE ADD AND DUP3 ADD PUSH1 0x40 MSTORE RETURNDATASIZE DUP3 MSTORE RETURNDATASIZE PUSH1 0x0 PUSH1 0x20 DUP5 ADD RETURNDATACOPY PUSH2 0x813 JUMP JUMPDEST PUSH1 0x60 SWAP2 POP JUMPDEST POP POP SWAP1 POP DUP1 PUSH2 0x856 JUMPI PUSH1 0x40 MLOAD PUSH3 0x461BCD PUSH1 0xE5 SHL DUP2 MSTORE PUSH1 0x20 PUSH1 0x4 DUP3 ADD MSTORE PUSH1 0xF PUSH1 0x24 DUP3 ADD MSTORE PUSH15 0x151C985B9CD9995C8819985A5B1959 PUSH1 0x8A SHL PUSH1 0x44 DUP3 ADD MSTORE PUSH1 0x64 ADD PUSH2 0x4BC JUMP JUMPDEST PUSH1 0x3 DUP4 ADD SLOAD PUSH1 0x2 DUP5 ADD SLOAD PUSH1 0x40 DUP1 MLOAD PUSH1 0x1 PUSH1 0x1 PUSH1 0xA0 SHL SUB SWAP1 SWAP4 AND DUP4 MSTORE PUSH1 0x20 DUP4 ADD SWAP2 SWAP1 SWAP2 MSTORE DUP8 SWAP2 PUSH32 0x3B7C90DF35B419337CFF0919FE91849006607BB66C4373623F06F9D48C1EBB98 SWAP2 ADD PUSH1 0x40 MLOAD DUP1 SWAP2 SUB SWAP1 LOG2 POP POP POP POP POP POP JUMP JUMPDEST PUSH1 0x0 DUP3 PUSH1 0x2 SLOAD DUP2 LT PUSH2 0x8D2 JUMPI PUSH1 0x40 MLOAD PUSH3 0x461BCD PUSH1 0xE5 SHL DUP2 MSTORE PUSH1 0x4 ADD PUSH2 0x4BC SWAP1 PUSH2 0x1380 JUMP JUMPDEST POP POP PUSH1 0x0 SWAP2 DUP3 MSTORE PUSH1 0x4 PUSH1 0x20 SWAP1 DUP2 MSTORE PUSH1 0x40 DUP1 DUP5 KECCAK256 PUSH1 0x1 PUSH1 0x1 PUSH1 0xA0 SHL SUB SWAP4 SWAP1 SWAP4 AND DUP5 MSTORE PUSH1 0x7 SWAP1 SWAP3 ADD SWAP1 MSTORE SWAP1 KECCAK256 SLOAD PUSH1 0xFF AND SWAP1 JUMP JUMPDEST CALLER PUSH1 0x0 SWAP1 DUP2 MSTORE PUSH1 0x3 PUSH1 0x20 MSTORE PUSH1 0x40 DUP2 KECCAK256 SLOAD PUSH1 0xFF AND PUSH2 0x932 JUMPI PUSH1 0x40 MLOAD PUSH3 0x461BCD PUSH1 0xE5 SHL DUP2 MSTORE PUSH1 0x4 ADD PUSH2 0x4BC SWAP1 PUSH2 0x133C JUMP JUMPDEST PUSH1 0x1 PUSH1 0x1 PUSH1 0xA0 SHL SUB DUP3 AND PUSH2 0x97C JUMPI PUSH1 0x40 MLOAD PUSH3 0x461BCD PUSH1 0xE5 SHL DUP2 MSTORE PUSH1 0x20 PUSH1 0x4 DUP3 ADD MSTORE PUSH1 0x11 PUSH1 0x24 DUP3 ADD MSTORE PUSH17 0x125B9D985B1A59081C9958DA5C1A595B9D PUSH1 0x7A SHL PUSH1 0x44 DUP3 ADD MSTORE PUSH1 0x64 ADD PUSH2 0x4BC JUMP JUMPDEST PUSH1 0x0 DUP4 GT PUSH2 0x9CC JUMPI PUSH1 0x40 MLOAD PUSH3 0x461BCD PUSH1 0xE5 SHL DUP2 MSTORE PUSH1 0x20 PUSH1 0x4 DUP3 ADD MSTORE PUSH1 0x1D PUSH1 0x24 DUP3 ADD MSTORE PUSH32 0x416D6F756E74206D7573742062652067726561746572207468616E2030000000 PUSH1 0x44 DUP3 ADD MSTORE PUSH1 0x64 ADD PUSH2 0x4BC JUMP JUMPDEST SELFBALANCE DUP4 GT ISZERO PUSH2 0xA1C JUMPI PUSH1 0x40 MLOAD PUSH3 0x461BCD PUSH1 0xE5 SHL DUP2 MSTORE PUSH1 0x20 PUSH1 0x4 DUP3 ADD MSTORE PUSH1 0x1D PUSH1 0x24 DUP3 ADD MSTORE PUSH32 0x496E73756666696369656E742074726561737572792062616C616E6365000000 PUSH1 0x44 DUP3 ADD MSTORE PUSH1 0x64 ADD PUSH2 0x4BC JUMP JUMPDEST PUSH1 0x0 DUP5 MLOAD GT PUSH2 0xA6D JUMPI PUSH1 0x40 MLOAD PUSH3 0x461BCD PUSH1 0xE5 SHL DUP2 MSTORE PUSH1 0x20 PUSH1 0x4 DUP3 ADD MSTORE PUSH1 0x1B PUSH1 0x24 DUP3 ADD MSTORE PUSH32 0x4465736372697074696F6E2063616E6E6F7420626520656D7074790000000000 PUSH1 0x44 DUP3 ADD MSTORE PUSH1 0x64 ADD PUSH2 0x4BC JUMP JUMPDEST PUSH1 0x2 SLOAD PUSH1 0x0 DUP2 DUP2 MSTORE PUSH1 0x4 PUSH1 0x20 MSTORE PUSH1 0x40 SWAP1 KECCAK256 DUP2 DUP2 SSTORE PUSH1 0x1 DUP2 ADD PUSH2 0xA8F DUP8 DUP3 PUSH2 0x1475 JUMP JUMPDEST POP PUSH1 0x2 DUP1 DUP3 ADD DUP7 SWAP1 SSTORE PUSH1 0x3 DUP3 ADD DUP1 SLOAD PUSH1 0x1 PUSH1 0x1 PUSH1 0xA0 SHL SUB DUP8 AND PUSH1 0x1 PUSH1 0x1 PUSH1 0xA0 SHL SUB NOT SWAP1 SWAP2 AND OR SWAP1 SSTORE PUSH1 0x0 PUSH1 0x4 DUP4 ADD DUP2 SWAP1 SSTORE PUSH1 0x5 DUP4 ADD DUP2 SWAP1 SSTORE PUSH1 0x6 DUP4 ADD DUP1 SLOAD PUSH2 0xFFFF NOT AND PUSH2 0x100 OR SWAP1 SSTORE DUP2 SLOAD SWAP2 SWAP1 PUSH2 0xAE5 DUP4 PUSH2 0x1534 JUMP JUMPDEST SWAP2 SWAP1 POP SSTORE POP DUP2 PUSH32 0x98504BC76D855FAC343248BDDDC062A45D467777DD16A83E57E505F8121562F3 DUP8 DUP8 DUP8 PUSH1 0x40 MLOAD PUSH2 0xB1E SWAP4 SWAP3 SWAP2 SWAP1 PUSH2 0x154D JUMP JUMPDEST PUSH1 0x40 MLOAD DUP1 SWAP2 SUB SWAP1 LOG2 POP SWAP5 SWAP4 POP POP POP POP JUMP JUMPDEST PUSH1 0x0 DUP1 PUSH1 0x64 PUSH1 0x1 SLOAD PUSH1 0x33 PUSH2 0xB43 SWAP2 SWAP1 PUSH2 0x13E7 JUMP JUMPDEST PUSH2 0xB4D SWAP2 SWAP1 PUSH2 0x1404 JUMP JUMPDEST SWAP1 POP DUP1 ISZERO PUSH2 0xB5B JUMPI DUP1 PUSH2 0xB5E JUMP JUMPDEST PUSH1 0x1 JUMPDEST SWAP2 POP POP SWAP1 JUMP JUMPDEST PUSH1 0x0 PUSH1 0x60 PUSH1 0x0 DUP1 PUSH1 0x0 DUP1 PUSH1 0x0 DUP1 DUP9 PUSH1 0x2 SLOAD DUP2 LT PUSH2 0xB93 JUMPI PUSH1 0x40 MLOAD PUSH3 0x461BCD PUSH1 0xE5 SHL DUP2 MSTORE PUSH1 0x4 ADD PUSH2 0x4BC SWAP1 PUSH2 0x1380 JUMP JUMPDEST PUSH1 0x0 DUP11 DUP2 MSTORE PUSH1 0x4 PUSH1 0x20 DUP2 SWAP1 MSTORE PUSH1 0x40 SWAP1 SWAP2 KECCAK256 DUP1 SLOAD PUSH1 0x2 DUP3 ADD SLOAD PUSH1 0x3 DUP4 ADD SLOAD SWAP4 DUP4 ADD SLOAD PUSH1 0x5 DUP5 ADD SLOAD PUSH1 0x6 DUP6 ADD SLOAD PUSH1 0x1 DUP7 ADD DUP1 SLOAD SWAP7 SWAP8 SWAP6 SWAP7 SWAP1 SWAP6 PUSH1 0x1 PUSH1 0x1 PUSH1 0xA0 SHL SUB AND SWAP4 SWAP3 SWAP2 PUSH1 0xFF DUP1 DUP3 AND SWAP3 PUSH2 0x100 SWAP1 SWAP3 DIV AND SWAP1 DUP8 SWAP1 PUSH2 0xBEF SWAP1 PUSH2 0x1293 JUMP JUMPDEST DUP1 PUSH1 0x1F ADD PUSH1 0x20 DUP1 SWAP2 DIV MUL PUSH1 0x20 ADD PUSH1 0x40 MLOAD SWAP1 DUP2 ADD PUSH1 0x40 MSTORE DUP1 SWAP3 SWAP2 SWAP1 DUP2 DUP2 MSTORE PUSH1 0x20 ADD DUP3 DUP1 SLOAD PUSH2 0xC1B SWAP1 PUSH2 0x1293 JUMP JUMPDEST DUP1 ISZERO PUSH2 0xC68 JUMPI DUP1 PUSH1 0x1F LT PUSH2 0xC3D JUMPI PUSH2 0x100 DUP1 DUP4 SLOAD DIV MUL DUP4 MSTORE SWAP2 PUSH1 0x20 ADD SWAP2 PUSH2 0xC68 JUMP JUMPDEST DUP3 ADD SWAP2 SWAP1 PUSH1 0x0 MSTORE PUSH1 0x20 PUSH1 0x0 KECCAK256 SWAP1 JUMPDEST DUP2 SLOAD DUP2 MSTORE SWAP1 PUSH1 0x1 ADD SWAP1 PUSH1 0x20 ADD DUP1 DUP4 GT PUSH2 0xC4B JUMPI DUP3 SWAP1 SUB PUSH1 0x1F AND DUP3 ADD SWAP2 JUMPDEST POP POP POP POP POP SWAP7 POP SWAP10 POP SWAP10 POP SWAP10 POP SWAP10 POP SWAP10 POP SWAP10 POP SWAP10 POP SWAP10 POP POP POP SWAP2 SWAP4 SWAP6 SWAP8 POP SWAP2 SWAP4 SWAP6 SWAP8 JUMP JUMPDEST CALLER PUSH1 0x0 SWAP1 DUP2 MSTORE PUSH1 0x3 PUSH1 0x20 MSTORE PUSH1 0x40 SWAP1 KECCAK256 SLOAD PUSH1 0xFF AND PUSH2 0xCBB JUMPI PUSH1 0x40 MLOAD PUSH3 0x461BCD PUSH1 0xE5 SHL DUP2 MSTORE PUSH1 0x4 ADD PUSH2 0x4BC SWAP1 PUSH2 0x133C JUMP JUMPDEST DUP2 PUSH1 0x2 SLOAD DUP2 LT PUSH2 0xCDD JUMPI PUSH1 0x40 MLOAD PUSH3 0x461BCD PUSH1 0xE5 SHL DUP2 MSTORE PUSH1 0x4 ADD PUSH2 0x4BC SWAP1 PUSH2 0x1380 JUMP JUMPDEST PUSH1 0x0 DUP4 DUP2 MSTORE PUSH1 0x4 PUSH1 0x20 MSTORE PUSH1 0x40 SWAP1 KECCAK256 PUSH1 0x6 ADD SLOAD DUP4 SWAP1 PUSH2 0x100 SWAP1 DIV PUSH1 0xFF AND PUSH2 0xD15 JUMPI PUSH1 0x40 MLOAD PUSH3 0x461BCD PUSH1 0xE5 SHL DUP2 MSTORE PUSH1 0x4 ADD PUSH2 0x4BC SWAP1 PUSH2 0x13B7 JUMP JUMPDEST PUSH1 0x0 DUP5 DUP2 MSTORE PUSH1 0x4 PUSH1 0x20 SWAP1 DUP2 MSTORE PUSH1 0x40 DUP1 DUP4 KECCAK256 CALLER DUP5 MSTORE PUSH1 0x7 DUP2 ADD SWAP1 SWAP3 MSTORE SWAP1 SWAP2 KECCAK256 SLOAD PUSH1 0xFF AND ISZERO PUSH2 0xD84 JUMPI PUSH1 0x40 MLOAD PUSH3 0x461BCD PUSH1 0xE5 SHL DUP2 MSTORE PUSH1 0x20 PUSH1 0x4 DUP3 ADD MSTORE PUSH1 0x1E PUSH1 0x24 DUP3 ADD MSTORE PUSH32 0x416C726561647920766F746564206F6E20746869732070726F706F73616C0000 PUSH1 0x44 DUP3 ADD MSTORE PUSH1 0x64 ADD PUSH2 0x4BC JUMP JUMPDEST CALLER PUSH1 0x0 SWAP1 DUP2 MSTORE PUSH1 0x7 DUP3 ADD PUSH1 0x20 MSTORE PUSH1 0x40 SWAP1 KECCAK256 DUP1 SLOAD PUSH1 0xFF NOT AND PUSH1 0x1 OR SWAP1 SSTORE DUP4 ISZERO PUSH2 0xDC2 JUMPI PUSH1 0x4 DUP2 ADD DUP1 SLOAD SWAP1 PUSH1 0x0 PUSH2 0xDB8 DUP4 PUSH2 0x1534 JUMP JUMPDEST SWAP2 SWAP1 POP SSTORE POP PUSH2 0xDDA JUMP JUMPDEST PUSH1 0x5 DUP2 ADD DUP1 SLOAD SWAP1 PUSH1 0x0 PUSH2 0xDD4 DUP4 PUSH2 0x1534 JUMP JUMPDEST SWAP2 SWAP1 POP SSTORE POP JUMPDEST PUSH1 0x40 MLOAD DUP5 ISZERO ISZERO DUP2 MSTORE CALLER SWAP1 DUP7 SWAP1 PUSH32 0xE71FCDAC32DF1877C1700E7BDA2A03157E20993363A28FC35AC495CEFC76E4D4 SWAP1 PUSH1 0x20 ADD PUSH1 0x40 MLOAD DUP1 SWAP2 SUB SWAP1 LOG3 POP POP POP POP POP JUMP JUMPDEST PUSH1 0x0 SLOAD PUSH1 0x1 PUSH1 0x1 PUSH1 0xA0 SHL SUB AND CALLER EQ PUSH2 0xE44 JUMPI PUSH1 0x40 MLOAD PUSH3 0x461BCD PUSH1 0xE5 SHL DUP2 MSTORE PUSH1 0x4 ADD PUSH2 0x4BC SWAP1 PUSH2 0x12CD JUMP JUMPDEST PUSH1 0x1 PUSH1 0x1 PUSH1 0xA0 SHL SUB DUP2 AND PUSH2 0xE8C JUMPI PUSH1 0x40 MLOAD PUSH3 0x461BCD PUSH1 0xE5 SHL DUP2 MSTORE PUSH1 0x20 PUSH1 0x4 DUP3 ADD MSTORE PUSH1 0xF PUSH1 0x24 DUP3 ADD MSTORE PUSH15 0x496E76616C69642061646472657373 PUSH1 0x88 SHL PUSH1 0x44 DUP3 ADD MSTORE PUSH1 0x64 ADD PUSH2 0x4BC JUMP JUMPDEST PUSH1 0x1 PUSH1 0x1 PUSH1 0xA0 SHL SUB DUP2 AND PUSH1 0x0 SWAP1 DUP2 MSTORE PUSH1 0x3 PUSH1 0x20 MSTORE PUSH1 0x40 SWAP1 KECCAK256 SLOAD PUSH1 0xFF AND ISZERO PUSH2 0xEE8 JUMPI PUSH1 0x40 MLOAD PUSH3 0x461BCD PUSH1 0xE5 SHL DUP2 MSTORE PUSH1 0x20 PUSH1 0x4 DUP3 ADD MSTORE PUSH1 0x10 PUSH1 0x24 DUP3 ADD MSTORE PUSH16 0x20B63932B0B23C90309036B2B6B132B9 PUSH1 0x81 SHL PUSH1 0x44 DUP3 ADD MSTORE PUSH1 0x64 ADD PUSH2 0x4BC JUMP JUMPDEST PUSH1 0x1 PUSH1 0x1 PUSH1 0xA0 SHL SUB DUP2 AND PUSH1 0x0 SWAP1 DUP2 MSTORE PUSH1 0x3 PUSH1 0x20 MSTORE PUSH1 0x40 DUP2 KECCAK256 DUP1 SLOAD PUSH1 0xFF NOT AND PUSH1 0x1 SWAP1 DUP2 OR SWAP1 SWAP2 SSTORE DUP1 SLOAD SWAP2 PUSH2 0xF1A DUP4 PUSH2 0x1534 JUMP JUMPDEST SWAP1 SWAP2 SSTORE POP POP PUSH1 0x40 MLOAD PUSH1 0x1 PUSH1 0x1 PUSH1 0xA0 SHL SUB DUP3 AND SWAP1 PUSH32 0xB251EB052AFC73FFD02FFE85AD79990A8B3FED60D76DBC2FA2FDD7123DFFD914 SWAP1 PUSH1 0x0 SWAP1 LOG2 POP JUMP JUMPDEST PUSH1 0x0 SLOAD PUSH1 0x1 PUSH1 0x1 PUSH1 0xA0 SHL SUB AND CALLER EQ PUSH2 0xF80 JUMPI PUSH1 0x40 MLOAD PUSH3 0x461BCD PUSH1 0xE5 SHL DUP2 MSTORE PUSH1 0x4 ADD PUSH2 0x4BC SWAP1 PUSH2 0x12CD JUMP JUMPDEST DUP1 PUSH1 0x2 SLOAD DUP2 LT PUSH2 0xFA2 JUMPI PUSH1 0x40 MLOAD PUSH3 0x461BCD PUSH1 0xE5 SHL DUP2 MSTORE PUSH1 0x4 ADD PUSH2 0x4BC SWAP1 PUSH2 0x1380 JUMP JUMPDEST PUSH1 0x0 DUP3 DUP2 MSTORE PUSH1 0x4 PUSH1 0x20 MSTORE PUSH1 0x40 SWAP1 KECCAK256 PUSH1 0x6 ADD SLOAD DUP3 SWAP1 PUSH2 0x100 SWAP1 DIV PUSH1 0xFF AND PUSH2 0xFDA JUMPI PUSH1 0x40 MLOAD PUSH3 0x461BCD PUSH1 0xE5 SHL DUP2 MSTORE PUSH1 0x4 ADD PUSH2 0x4BC SWAP1 PUSH2 0x13B7 JUMP JUMPDEST PUSH1 0x0 DUP4 DUP2 MSTORE PUSH1 0x4 PUSH1 0x20 MSTORE PUSH1 0x40 SWAP1 KECCAK256 PUSH1 0x6 DUP2 ADD SLOAD PUSH1 0xFF AND ISZERO PUSH2 0x103D JUMPI PUSH1 0x40 MLOAD PUSH3 0x461BCD PUSH1 0xE5 SHL DUP2 MSTORE PUSH1 0x20 PUSH1 0x4 DUP3 ADD MSTORE PUSH1 0x1F PUSH1 0x24 DUP3 ADD MSTORE PUSH32 0x43616E6E6F742063616E63656C2065786563757465642070726F706F73616C00 PUSH1 0x44 DUP3 ADD MSTORE PUSH1 0x64 ADD PUSH2 0x4BC JUMP JUMPDEST PUSH1 0x6 ADD DUP1 SLOAD PUSH2 0xFF00 NOT AND SWAP1 SSTORE POP POP POP JUMP JUMPDEST PUSH1 0x0 PUSH1 0x20 DUP3 DUP5 SUB SLT ISZERO PUSH2 0x1060 JUMPI PUSH1 0x0 DUP1 REVERT JUMPDEST POP CALLDATALOAD SWAP2 SWAP1 POP JUMP JUMPDEST PUSH1 0x0 DUP2 MLOAD DUP1 DUP5 MSTORE PUSH1 0x0 JUMPDEST DUP2 DUP2 LT ISZERO PUSH2 0x108D JUMPI PUSH1 0x20 DUP2 DUP6 ADD DUP2 ADD MLOAD DUP7 DUP4 ADD DUP3 ADD MSTORE ADD PUSH2 0x1071 JUMP JUMPDEST POP PUSH1 0x0 PUSH1 0x20 DUP3 DUP7 ADD ADD MSTORE PUSH1 0x20 PUSH1 0x1F NOT PUSH1 0x1F DUP4 ADD AND DUP6 ADD ADD SWAP2 POP POP SWAP3 SWAP2 POP POP JUMP JUMPDEST DUP9 DUP2 MSTORE PUSH2 0x100 PUSH1 0x20 DUP3 ADD MSTORE PUSH1 0x0 PUSH2 0x10C8 PUSH2 0x100 DUP4 ADD DUP11 PUSH2 0x1067 JUMP JUMPDEST PUSH1 0x40 DUP4 ADD SWAP9 SWAP1 SWAP9 MSTORE POP PUSH1 0x1 PUSH1 0x1 PUSH1 0xA0 SHL SUB SWAP6 SWAP1 SWAP6 AND PUSH1 0x60 DUP7 ADD MSTORE PUSH1 0x80 DUP6 ADD SWAP4 SWAP1 SWAP4 MSTORE PUSH1 0xA0 DUP5 ADD SWAP2 SWAP1 SWAP2 MSTORE ISZERO ISZERO PUSH1 0xC0 DUP4 ADD MSTORE ISZERO ISZERO PUSH1 0xE0 SWAP1 SWAP2 ADD MSTORE SWAP3 SWAP2 POP POP JUMP JUMPDEST PUSH1 0x1 PUSH1 0x1 PUSH1 0xA0 SHL SUB DUP2 AND DUP2 EQ PUSH2 0x111C JUMPI PUSH1 0x0 DUP1 REVERT JUMPDEST POP JUMP JUMPDEST PUSH1 0x0 PUSH1 0x20 DUP3 DUP5 SUB SLT ISZERO PUSH2 0x1131 JUMPI PUSH1 0x0 DUP1 REVERT JUMPDEST DUP2 CALLDATALOAD PUSH2 0x113C DUP2 PUSH2 0x1107 JUMP JUMPDEST SWAP4 SWAP3 POP POP POP JUMP JUMPDEST PUSH1 0x0 DUP1 PUSH1 0x40 DUP4 DUP6 SUB SLT ISZERO PUSH2 0x1156 JUMPI PUSH1 0x0 DUP1 REVERT JUMPDEST DUP3 CALLDATALOAD SWAP2 POP PUSH1 0x20 DUP4 ADD CALLDATALOAD PUSH2 0x1168 DUP2 PUSH2 0x1107 JUMP JUMPDEST DUP1 SWAP2 POP POP SWAP3 POP SWAP3 SWAP1 POP JUMP JUMPDEST PUSH4 0x4E487B71 PUSH1 0xE0 SHL PUSH1 0x0 MSTORE PUSH1 0x41 PUSH1 0x4 MSTORE PUSH1 0x24 PUSH1 0x0 REVERT JUMPDEST DUP1 CALLDATALOAD PUSH2 0x1194 DUP2 PUSH2 0x1107 JUMP JUMPDEST SWAP2 SWAP1 POP JUMP JUMPDEST PUSH1 0x0 DUP1 PUSH1 0x0 PUSH1 0x60 DUP5 DUP7 SUB SLT ISZERO PUSH2 0x11AE JUMPI PUSH1 0x0 DUP1 REVERT JUMPDEST DUP4 CALLDATALOAD PUSH8 0xFFFFFFFFFFFFFFFF DUP2 GT ISZERO PUSH2 0x11C5 JUMPI PUSH1 0x0 DUP1 REVERT JUMPDEST DUP5 ADD PUSH1 0x1F DUP2 ADD DUP7 SGT PUSH2 0x11D6 JUMPI PUSH1 0x0 DUP1 REVERT JUMPDEST DUP1 CALLDATALOAD PUSH8 0xFFFFFFFFFFFFFFFF DUP2 GT ISZERO PUSH2 0x11F0 JUMPI PUSH2 0x11F0 PUSH2 0x1173 JUMP JUMPDEST PUSH1 0x40 MLOAD PUSH1 0x1F DUP3 ADD PUSH1 0x1F NOT SWAP1 DUP2 AND PUSH1 0x3F ADD AND DUP2 ADD PUSH8 0xFFFFFFFFFFFFFFFF DUP2 GT DUP3 DUP3 LT OR ISZERO PUSH2 0x121F JUMPI PUSH2 0x121F PUSH2 0x1173 JUMP JUMPDEST PUSH1 0x40 MSTORE DUP2 DUP2 MSTORE DUP3 DUP3 ADD PUSH1 0x20 ADD DUP9 LT ISZERO PUSH2 0x1237 JUMPI PUSH1 0x0 DUP1 REVERT JUMPDEST DUP2 PUSH1 0x20 DUP5 ADD PUSH1 0x20 DUP4 ADD CALLDATACOPY PUSH1 0x0 PUSH1 0x20 SWAP3 DUP3 ADD DUP4 ADD MSTORE SWAP5 POP DUP6 ADD CALLDATALOAD SWAP3 POP PUSH2 0x1260 SWAP1 POP PUSH1 0x40 DUP6 ADD PUSH2 0x1189 JUMP JUMPDEST SWAP1 POP SWAP3 POP SWAP3 POP SWAP3 JUMP JUMPDEST PUSH1 0x0 DUP1 PUSH1 0x40 DUP4 DUP6 SUB SLT ISZERO PUSH2 0x127C JUMPI PUSH1 0x0 DUP1 REVERT JUMPDEST DUP3 CALLDATALOAD SWAP2 POP PUSH1 0x20 DUP4 ADD CALLDATALOAD DUP1 ISZERO ISZERO DUP2 EQ PUSH2 0x1168 JUMPI PUSH1 0x0 DUP1 REVERT JUMPDEST PUSH1 0x1 DUP2 DUP2 SHR SWAP1 DUP3 AND DUP1 PUSH2 0x12A7 JUMPI PUSH1 0x7F DUP3 AND SWAP2 POP JUMPDEST PUSH1 0x20 DUP3 LT DUP2 SUB PUSH2 0x12C7 JUMPI PUSH4 0x4E487B71 PUSH1 0xE0 SHL PUSH1 0x0 MSTORE PUSH1 0x22 PUSH1 0x4 MSTORE PUSH1 0x24 PUSH1 0x0 REVERT JUMPDEST POP SWAP2 SWAP1 POP JUMP JUMPDEST PUSH1 0x20 DUP1 DUP3 MSTORE PUSH1 0x22 SWAP1 DUP3 ADD MSTORE PUSH32 0x4F6E6C79206F776E65722063616E20706572666F726D20746869732061637469 PUSH1 0x40 DUP3 ADD MSTORE PUSH2 0x37B7 PUSH1 0xF1 SHL PUSH1 0x60 DUP3 ADD MSTORE PUSH1 0x80 ADD SWAP1 JUMP JUMPDEST PUSH4 0x4E487B71 PUSH1 0xE0 SHL PUSH1 0x0 MSTORE PUSH1 0x11 PUSH1 0x4 MSTORE PUSH1 0x24 PUSH1 0x0 REVERT JUMPDEST PUSH1 0x0 DUP2 PUSH2 0x1334 JUMPI PUSH2 0x1334 PUSH2 0x130F JUMP JUMPDEST POP PUSH1 0x0 NOT ADD SWAP1 JUMP JUMPDEST PUSH1 0x20 DUP1 DUP3 MSTORE PUSH1 0x24 SWAP1 DUP3 ADD MSTORE PUSH32 0x4F6E6C79206D656D626572732063616E20706572666F726D2074686973206163 PUSH1 0x40 DUP3 ADD MSTORE PUSH4 0x3A34B7B7 PUSH1 0xE1 SHL PUSH1 0x60 DUP3 ADD MSTORE PUSH1 0x80 ADD SWAP1 JUMP JUMPDEST PUSH1 0x20 DUP1 DUP3 MSTORE PUSH1 0x17 SWAP1 DUP3 ADD MSTORE PUSH32 0x50726F706F73616C20646F6573206E6F74206578697374000000000000000000 PUSH1 0x40 DUP3 ADD MSTORE PUSH1 0x60 ADD SWAP1 JUMP JUMPDEST PUSH1 0x20 DUP1 DUP3 MSTORE PUSH1 0x16 SWAP1 DUP3 ADD MSTORE PUSH22 0x50726F706F73616C206973206E6F7420616374697665 PUSH1 0x50 SHL PUSH1 0x40 DUP3 ADD MSTORE PUSH1 0x60 ADD SWAP1 JUMP JUMPDEST DUP1 DUP3 MUL DUP2 ISZERO DUP3 DUP3 DIV DUP5 EQ OR PUSH2 0x13FE JUMPI PUSH2 0x13FE PUSH2 0x130F JUMP JUMPDEST SWAP3 SWAP2 POP POP JUMP JUMPDEST PUSH1 0x0 DUP3 PUSH2 0x1421 JUMPI PUSH4 0x4E487B71 PUSH1 0xE0 SHL PUSH1 0x0 MSTORE PUSH1 0x12 PUSH1 0x4 MSTORE PUSH1 0x24 PUSH1 0x0 REVERT JUMPDEST POP DIV SWAP1 JUMP JUMPDEST PUSH1 0x1F DUP3 GT ISZERO PUSH2 0x1470 JUMPI DUP1 PUSH1 0x0 MSTORE PUSH1 0x20 PUSH1 0x0 KECCAK256 PUSH1 0x1F DUP5 ADD PUSH1 0x5 SHR DUP2 ADD PUSH1 0x20 DUP6 LT ISZERO PUSH2 0x144D JUMPI POP DUP1 JUMPDEST PUSH1 0x1F DUP5 ADD PUSH1 0x5 SHR DUP3 ADD SWAP2 POP JUMPDEST DUP2 DUP2 LT ISZERO PUSH2 0x146D JUMPI PUSH1 0x0 DUP2 SSTORE PUSH1 0x1 ADD PUSH2 0x1459 JUMP JUMPDEST POP POP JUMPDEST POP POP POP JUMP JUMPDEST DUP2 MLOAD PUSH8 0xFFFFFFFFFFFFFFFF DUP2 GT ISZERO PUSH2 0x148F JUMPI PUSH2 0x148F PUSH2 0x1173 JUMP JUMPDEST PUSH2 0x14A3 DUP2 PUSH2 0x149D DUP5 SLOAD PUSH2 0x1293 JUMP JUMPDEST DUP5 PUSH2 0x1426 JUMP JUMPDEST PUSH1 0x20 PUSH1 0x1F DUP3 GT PUSH1 0x1 DUP2 EQ PUSH2 0x14D7 JUMPI PUSH1 0x0 DUP4 ISZERO PUSH2 0x14BF JUMPI POP DUP5 DUP3 ADD MLOAD JUMPDEST PUSH1 0x0 NOT PUSH1 0x3 DUP6 SWAP1 SHL SHR NOT AND PUSH1 0x1 DUP5 SWAP1 SHL OR DUP5 SSTORE PUSH2 0x146D JUMP JUMPDEST PUSH1 0x0 DUP5 DUP2 MSTORE PUSH1 0x20 DUP2 KECCAK256 PUSH1 0x1F NOT DUP6 AND SWAP2 JUMPDEST DUP3 DUP2 LT ISZERO PUSH2 0x1507 JUMPI DUP8 DUP6 ADD MLOAD DUP3 SSTORE PUSH1 0x20 SWAP5 DUP6 ADD SWAP5 PUSH1 0x1 SWAP1 SWAP3 ADD SWAP2 ADD PUSH2 0x14E7 JUMP JUMPDEST POP DUP5 DUP3 LT ISZERO PUSH2 0x1525 JUMPI DUP7 DUP5 ADD MLOAD PUSH1 0x0 NOT PUSH1 0x3 DUP8 SWAP1 SHL PUSH1 0xF8 AND SHR NOT AND DUP2 SSTORE JUMPDEST POP POP POP POP PUSH1 0x1 SWAP1 DUP2 SHL ADD SWAP1 SSTORE POP JUMP JUMPDEST PUSH1 0x0 PUSH1 0x1 DUP3 ADD PUSH2 0x1546 JUMPI PUSH2 0x1546 PUSH2 0x130F JUMP JUMPDEST POP PUSH1 0x1 ADD SWAP1 JUMP JUMPDEST PUSH1 0x60 DUP2 MSTORE PUSH1 0x0 PUSH2 0x1560 PUSH1 0x60 DUP4 ADD DUP7 PUSH2 0x1067 JUMP JUMPDEST PUSH1 0x20 DUP4 ADD SWAP5 SWAP1 SWAP5 MSTORE POP PUSH1 0x1 PUSH1 0x1 PUSH1 0xA0 SHL SUB SWAP2 SWAP1 SWAP2 AND PUSH1 0x40 SWAP1 SWAP2 ADD MSTORE SWAP2 SWAP1 POP JUMP INVALID LOG2 PUSH5 0x6970667358 0x22 SLT KECCAK256 ORIGIN PUSH5 0x173A49A620 BASEFEE TIMESTAMP AND BLOCKHASH 0xAF 0xAB PUSH24 0xF81E204B3FADAB09BA791851D8DBAAC23CE664736F6C6343 STOP ADDMOD SHR STOP CALLER "},"methodIdentifiers":{"addMember(address)":"ca6d56dc","cancelProposal(uint256)":"e0a8f6f5","createProposal(string,uint256,address)":"6ac1e01f","executeProposal(uint256)":"0d61b519","getProposal(uint256)":"c7f758a8","getRequiredVotes()":"7b788b7f","getTreasuryBalance()":"9b5655dc","hasVoted(uint256,address)":"43859632","isMember(address)":"a230c524","memberCount()":"11aee380","members(address)":"08ae4b0c","owner()":"8da5cb5b","proposalCount()":"da35c664","proposals(uint256)":"013cf08b","removeMember(address)":"0b1ca49a","vote(uint256,bool)":"c9d27afe"}}}}}