{
  "_format": "hh-sol-artifact-1",
  "contractName": "ClubGov",
  "sourceName": "contracts/ClubGov.sol",
  "abi": [
    {
      "inputs": [],
      "stateMutability": "nonpayable",
      "type": "constructor"
    },
    {
      "anonymous": false,
      "inputs": [
        {
          "indexed": true,
          "internalType": "address",
          "name": "sender",
          "type": "address"
        },
        {
          "indexed": false,
          "internalType": "uint256",
          "name": "amount",
          "type": "uint256"
        }
      ],
      "name": "FundsReceived",
      "type": "event"
    },
    {
      "anonymous": false,
      "inputs": [
        {
          "indexed": true,
          "internalType": "address",
          "name": "member",
          "type": "address"
        }
      ],
      "name": "MemberAdded",
      "type": "event"
    },
    {
      "anonymous": false,
      "inputs": [
        {
          "indexed": true,
          "internalType": "address",
          "name": "member",
          "type": "address"
        }
      ],
      "name": "MemberRemoved",
      "type": "event"
    },
    {
      "anonymous": false,
      "inputs": [
        {
          "indexed": true,
          "internalType": "uint256",
          "name": "proposalId",
          "type": "uint256"
        },
        {
          "indexed": false,
          "internalType": "string",
          "name": "description",
          "type": "string"
        },
        {
          "indexed": false,
          "internalType": "uint256",
          "name": "amount",
          "type": "uint256"
        },
        {
          "indexed": false,
          "internalType": "address",
          "name": "recipient",
          "type": "address"
        }
      ],
      "name": "ProposalCreated",
      "type": "event"
    },
    {
      "anonymous": false,
      "inputs": [
        {
          "indexed": true,
          "internalType": "uint256",
          "name": "proposalId",
          "type": "uint256"
        },
        {
          "indexed": false,
          "internalType": "address",
          "name": "recipient",
          "type": "address"
        },
        {
          "indexed": false,
          "internalType": "uint256",
          "name": "amount",
          "type": "uint256"
        }
      ],
      "name": "ProposalExecuted",
      "type": "event"
    },
    {
      "anonymous": false,
      "inputs": [
        {
          "indexed": true,
          "internalType": "uint256",
          "name": "proposalId",
          "type": "uint256"
        },
        {
          "indexed": true,
          "internalType": "address",
          "name": "voter",
          "type": "address"
        },
        {
          "indexed": false,
          "internalType": "bool",
          "name": "support",
          "type": "bool"
        }
      ],
      "name": "VoteCast",
      "type": "event"
    },
    {
      "stateMutability": "payable",
      "type": "fallback"
    },
    {
      "inputs": [
        {
          "internalType": "address",
          "name": "_member",
          "type": "address"
        }
      ],
      "name": "addMember",
      "outputs": [],
      "stateMutability": "nonpayable",
      "type": "function"
    },
    {
      "inputs": [
        {
          "internalType": "uint256",
          "name": "_proposalId",
          "type": "uint256"
        }
      ],
      "name": "cancelProposal",
      "outputs": [],
      "stateMutability": "nonpayable",
      "type": "function"
    },
    {
      "inputs": [
        {
          "internalType": "string",
          "name": "_description",
          "type": "string"
        },
        {
          "internalType": "uint256",
          "name": "_amount",
          "type": "uint256"
        },
        {
          "internalType": "address payable",
          "name": "_recipient",
          "type": "address"
        }
      ],
      "name": "createProposal",
      "outputs": [
        {
          "internalType": "uint256",
          "name": "",
          "type": "uint256"
        }
      ],
      "stateMutability": "nonpayable",
      "type": "function"
    },
    {
      "inputs": [
        {
          "internalType": "uint256",
          "name": "_proposalId",
          "type": "uint256"
        }
      ],
      "name": "executeProposal",
      "outputs": [],
      "stateMutability": "nonpayable",
      "type": "function"
    },
    {
      "inputs": [
        {
          "internalType": "uint256",
          "name": "_proposalId",
          "type": "uint256"
        }
      ],
      "name": "getProposal",
      "outputs": [
        {
          "internalType": "uint256",
          "name": "id",
          "type": "uint256"
        },
        {
          "internalType": "string",
          "name": "description",
          "type": "string"
        },
        {
          "internalType": "uint256",
          "name": "amount",
          "type": "uint256"
        },
        {
          "internalType": "address",
          "name": "recipient",
          "type": "address"
        },
        {
          "internalType": "uint256",
          "name": "yesVotes",
          "type": "uint256"
        },
        {
          "internalType": "uint256",
          "name": "noVotes",
          "type": "uint256"
        },
        {
          "internalType": "bool",
          "name": "executed",
          "type": "bool"
        },
        {
          "internalType": "bool",
          "name": "active",
          "type": "bool"
        }
      ],
      "stateMutability": "view",
      "type": "function"
    },
    {
      "inputs": [],
      "name": "getRequiredVotes",
      "outputs": [
        {
          "internalType": "uint256",
          "name": "",
          "type": "uint256"
        }
      ],
      "stateMutability": "view",
      "type": "function"
    },
    {
      "inputs": [],
      "name": "getTreasuryBalance",
      "outputs": [
        {
          "internalType": "uint256",
          "name": "",
          "type": "uint256"
        }
      ],
      "stateMutability": "view",
      "type": "function"
    },
    {
      "inputs": [
        {
          "internalType": "uint256",
          "name": "_proposalId",
          "type": "uint256"
        },
        {
          "internalType": "address",
          "name": "_voter",
          "type": "address"
        }
      ],
      "name": "hasVoted",
      "outputs": [
        {
          "internalType": "bool",
          "name": "",
          "type": "bool"
        }
      ],
      "stateMutability": "view",
      "type": "function"
    },
    {
      "inputs": [
        {
          "internalType": "address",
          "name": "_address",
          "type": "address"
        }
      ],
      "name": "isMember",
      "outputs": [
        {
          "internalType": "bool",
          "name": "",
          "type": "bool"
        }
      ],
      "stateMutability": "view",
      "type": "function"
    },
    {
      "inputs": [],
      "name": "memberCount",
      "outputs": [
        {
          "internalType": "uint256",
          "name": "",
          "type": "uint256"
        }
      ],
      "stateMutability": "view",
      "type": "function"
    },
    {
      "inputs": [
        {
          "internalType": "address",
          "name": "",
          "type": "address"
        }
      ],
      "name": "members",
      "outputs": [
        {
          "internalType": "bool",
          "name": "",
          "type": "bool"
        }
      ],
      "stateMutability": "view",
      "type": "function"
    },
    {
      "inputs": [],
      "name": "owner",
      "outputs": [
        {
          "internalType": "address",
          "name": "",
          "type": "address"
        }
      ],
      "stateMutability": "view",
      "type": "function"
    },
    {
      "inputs": [],
      "name": "proposalCount",
      "outputs": [
        {
          "internalType": "uint256",
          "name": "",
          "type": "uint256"
        }
      ],
      "stateMutability": "view",
      "type": "function"
    },
    {
      "inputs": [
        {
          "internalType": "uint256",
          "name": "",
          "type": "uint256"
        }
      ],
      "name": "proposals",
      "outputs": [
        {
          "internalType": "uint256",
          "name": "id",
          "type": "uint256"
        },
        {
          "internalType": "string",
          "name": "description",
          "type": "string"
        },
        {
          "internalType": "uint256",
          "name": "amount",
          "type": "uint256"
        },
        {
          "internalType": "address payable",
          "name": "recipient",
          "type": "address"
        },
        {
          "internalType": "uint256",
          "name": "yesVotes",
          "type": "uint256"
        },
        {
          "internalType": "uint256",
          "name": "noVotes",
          "type": "uint256"
        },
        {
          "internalType": "bool",
          "name": "executed",
          "type": "bool"
        },
        {
          "internalType": "bool",
          "name": "active",
          "type": "bool"
        }
      ],
      "stateMutability": "view",
      "type": "function"
    },
    {
      "inputs": [
        {
          "internalType": "address",
          "name": "_member",
          "type": "address"
        }
      ],
      "name": "removeMember",
      "outputs": [],
      "stateMutability": "nonpayable",
      "type": "function"
    },
    {
      "inputs": [
        {
          "internalType": "uint256",
          "name": "_proposalId",
          "type": "uint256"
        },
        {
          "internalType": "bool",
          "name": "_support",
          "type": "bool"
        }
      ],
      "name": "vote",
      "outputs": [],
      "stateMutability": "nonpayable",
      "type": "function"
    },
    {
      "stateMutability": "payable",
      "type": "receive"
    }
  ],
  "bytecode": "0x6080604052348015600f57600080fd5b50600080546001600160a01b0319163390811782558152600360205260409020805460ff1916600190811790915580556115b68061004e6000396000f3fe6080604052600436106100f75760003560e01c80638da5cb5b1161008a578063c9d27afe11610059578063c9d27afe14610342578063ca6d56dc14610362578063da35c66414610382578063e0a8f6f51461039857610134565b80638da5cb5b1461029e5780639b5655dc146102d6578063a230c524146102e9578063c7f758a81461032257610134565b806311aee380116100c657806311aee3801461022557806343859632146102495780636ac1e01f146102695780637b788b7f1461028957610134565b8063013cf08b1461016657806308ae4b0c146101a35780630b1ca49a146101e35780630d61b5191461020557610134565b366101345760405134815233907f8e47b87b0ef542cdfa1659c551d88bad38aa7f452d2bbb349ab7530dfec8be8f906020015b60405180910390a2005b60405134815233907f8e47b87b0ef542cdfa1659c551d88bad38aa7f452d2bbb349ab7530dfec8be8f9060200161012a565b34801561017257600080fd5b5061018661018136600461104e565b6103b8565b60405161019a9897969594939291906110ad565b60405180910390f35b3480156101af57600080fd5b506101d36101be36600461111f565b60036020526000908152604090205460ff1681565b604051901515815260200161019a565b3480156101ef57600080fd5b506102036101fe36600461111f565b610492565b005b34801561021157600080fd5b5061020361022036600461104e565b6105da565b34801561023157600080fd5b5061023b60015481565b60405190815260200161019a565b34801561025557600080fd5b506101d3610264366004611143565b6108ae565b34801561027557600080fd5b5061023b610284366004611199565b610903565b34801561029557600080fd5b5061023b610b2f565b3480156102aa57600080fd5b506000546102be906001600160a01b031681565b6040516001600160a01b03909116815260200161019a565b3480156102e257600080fd5b504761023b565b3480156102f557600080fd5b506101d361030436600461111f565b6001600160a01b031660009081526003602052604090205460ff1690565b34801561032e57600080fd5b5061018661033d36600461104e565b610b64565b34801561034e57600080fd5b5061020361035d366004611269565b610c8c565b34801561036e57600080fd5b5061020361037d36600461111f565b610e1a565b34801561038e57600080fd5b5061023b60025481565b3480156103a457600080fd5b506102036103b336600461104e565b610f56565b600460205260009081526040902080546001820180549192916103da90611293565b80601f016020809104026020016040519081016040528092919081815260200182805461040690611293565b80156104535780601f1061042857610100808354040283529160200191610453565b820191906000526020600020905b81548152906001019060200180831161043657829003601f168201915b5050506002840154600385015460048601546005870154600690970154959692956001600160a01b039092169450925060ff8082169161010090041688565b6000546001600160a01b031633146104c55760405162461bcd60e51b81526004016104bc906112cd565b60405180910390fd5b6001600160a01b03811660009081526003602052604090205460ff1661051c5760405162461bcd60e51b815260206004820152600c60248201526b2737ba10309036b2b6b132b960a11b60448201526064016104bc565b6000546001600160a01b03908116908216036105705760405162461bcd60e51b815260206004820152601360248201527221b0b73737ba103932b6b7bb329037bbb732b960691b60448201526064016104bc565b6001600160a01b0381166000908152600360205260408120805460ff19169055600180549161059e83611325565b90915550506040516001600160a01b038216907f6e76fb4c77256006d9c38ec7d82b45a8c8f3c27b1d6766fffc42dfb8de68449290600090a250565b3360009081526003602052604090205460ff166106095760405162461bcd60e51b81526004016104bc9061133c565b80600254811061062b5760405162461bcd60e51b81526004016104bc90611380565b6000828152600460205260409020600601548290610100900460ff166106635760405162461bcd60e51b81526004016104bc906113b7565b6000838152600460205260409020600681015460ff16156106c65760405162461bcd60e51b815260206004820152601960248201527f50726f706f73616c20616c72656164792065786563757465640000000000000060448201526064016104bc565b806002015447101561071a5760405162461bcd60e51b815260206004820152601d60248201527f496e73756666696369656e742074726561737572792062616c616e636500000060448201526064016104bc565b60006064600154603361072d91906113e7565b6107379190611404565b905080600003610745575060015b80826004015410156107ab5760405162461bcd60e51b815260206004820152602960248201527f50726f706f73616c20686173206e6f74207265616368656420766f74696e67206044820152681d1a1c995cda1bdb1960ba1b60648201526084016104bc565b60068201805461ffff19166001179055600382015460028301546040516000926001600160a01b031691908381818185875af1925050503d806000811461080e576040519150601f19603f3d011682016040523d82523d6000602084013e610813565b606091505b50509050806108565760405162461bcd60e51b815260206004820152600f60248201526e151c985b9cd9995c8819985a5b1959608a1b60448201526064016104bc565b60038301546002840154604080516001600160a01b039093168352602083019190915287917f3b7c90df35b419337cff0919fe91849006607bb66c4373623f06f9d48c1ebb98910160405180910390a2505050505050565b60008260025481106108d25760405162461bcd60e51b81526004016104bc90611380565b505060009182526004602090815260408084206001600160a01b039390931684526007909201905290205460ff1690565b3360009081526003602052604081205460ff166109325760405162461bcd60e51b81526004016104bc9061133c565b6001600160a01b03821661097c5760405162461bcd60e51b8152602060048201526011602482015270125b9d985b1a59081c9958da5c1a595b9d607a1b60448201526064016104bc565b600083116109cc5760405162461bcd60e51b815260206004820152601d60248201527f416d6f756e74206d7573742062652067726561746572207468616e203000000060448201526064016104bc565b47831115610a1c5760405162461bcd60e51b815260206004820152601d60248201527f496e73756666696369656e742074726561737572792062616c616e636500000060448201526064016104bc565b6000845111610a6d5760405162461bcd60e51b815260206004820152601b60248201527f4465736372697074696f6e2063616e6e6f7420626520656d707479000000000060448201526064016104bc565b600254600081815260046020526040902081815560018101610a8f8782611475565b5060028082018690556003820180546001600160a01b0387166001600160a01b03199091161790556000600483018190556005830181905560068301805461ffff191661010017905581549190610ae583611534565b9190505550817f98504bc76d855fac343248bdddc062a45d467777dd16a83e57e505f8121562f3878787604051610b1e9392919061154d565b60405180910390a250949350505050565b60008060646001546033610b4391906113e7565b610b4d9190611404565b90508015610b5b5780610b5e565b60015b91505090565b60006060600080600080600080886002548110610b935760405162461bcd60e51b81526004016104bc90611380565b60008a815260046020819052604090912080546002820154600383015493830154600584015460068501546001860180549697959690956001600160a01b031693929160ff8082169261010090920416908790610bef90611293565b80601f0160208091040260200160405190810160405280929190818152602001828054610c1b90611293565b8015610c685780601f10610c3d57610100808354040283529160200191610c68565b820191906000526020600020905b815481529060010190602001808311610c4b57829003601f168201915b50505050509650995099509950995099509950995099505050919395975091939597565b3360009081526003602052604090205460ff16610cbb5760405162461bcd60e51b81526004016104bc9061133c565b816002548110610cdd5760405162461bcd60e51b81526004016104bc90611380565b6000838152600460205260409020600601548390610100900460ff16610d155760405162461bcd60e51b81526004016104bc906113b7565b6000848152600460209081526040808320338452600781019092529091205460ff1615610d845760405162461bcd60e51b815260206004820152601e60248201527f416c726561647920766f746564206f6e20746869732070726f706f73616c000060448201526064016104bc565b3360009081526007820160205260409020805460ff191660011790558315610dc257600481018054906000610db883611534565b9190505550610dda565b600581018054906000610dd483611534565b91905055505b6040518415158152339086907fe71fcdac32df1877c1700e7bda2a03157e20993363a28fc35ac495cefc76e4d49060200160405180910390a35050505050565b6000546001600160a01b03163314610e445760405162461bcd60e51b81526004016104bc906112cd565b6001600160a01b038116610e8c5760405162461bcd60e51b815260206004820152600f60248201526e496e76616c6964206164647265737360881b60448201526064016104bc565b6001600160a01b03811660009081526003602052604090205460ff1615610ee85760405162461bcd60e51b815260206004820152601060248201526f20b63932b0b23c90309036b2b6b132b960811b60448201526064016104bc565b6001600160a01b0381166000908152600360205260408120805460ff19166001908117909155805491610f1a83611534565b90915550506040516001600160a01b038216907fb251eb052afc73ffd02ffe85ad79990a8b3fed60d76dbc2fa2fdd7123dffd91490600090a250565b6000546001600160a01b03163314610f805760405162461bcd60e51b81526004016104bc906112cd565b806002548110610fa25760405162461bcd60e51b81526004016104bc90611380565b6000828152600460205260409020600601548290610100900460ff16610fda5760405162461bcd60e51b81526004016104bc906113b7565b6000838152600460205260409020600681015460ff161561103d5760405162461bcd60e51b815260206004820152601f60248201527f43616e6e6f742063616e63656c2065786563757465642070726f706f73616c0060448201526064016104bc565b600601805461ff0019169055505050565b60006020828403121561106057600080fd5b5035919050565b6000815180845260005b8181101561108d57602081850181015186830182015201611071565b506000602082860101526020601f19601f83011685010191505092915050565b888152610100602082015260006110c861010083018a611067565b6040830198909852506001600160a01b03959095166060860152608085019390935260a0840191909152151560c0830152151560e09091015292915050565b6001600160a01b038116811461111c57600080fd5b50565b60006020828403121561113157600080fd5b813561113c81611107565b9392505050565b6000806040838503121561115657600080fd5b82359150602083013561116881611107565b809150509250929050565b634e487b7160e01b600052604160045260246000fd5b803561119481611107565b919050565b6000806000606084860312156111ae57600080fd5b833567ffffffffffffffff8111156111c557600080fd5b8401601f810186136111d657600080fd5b803567ffffffffffffffff8111156111f0576111f0611173565b604051601f8201601f19908116603f0116810167ffffffffffffffff8111828210171561121f5761121f611173565b60405281815282820160200188101561123757600080fd5b816020840160208301376000602092820183015294508501359250611260905060408501611189565b90509250925092565b6000806040838503121561127c57600080fd5b823591506020830135801515811461116857600080fd5b600181811c908216806112a757607f821691505b6020821081036112c757634e487b7160e01b600052602260045260246000fd5b50919050565b60208082526022908201527f4f6e6c79206f776e65722063616e20706572666f726d2074686973206163746960408201526137b760f11b606082015260800190565b634e487b7160e01b600052601160045260246000fd5b6000816113345761133461130f565b506000190190565b60208082526024908201527f4f6e6c79206d656d626572732063616e20706572666f726d20746869732061636040820152633a34b7b760e11b606082015260800190565b60208082526017908201527f50726f706f73616c20646f6573206e6f74206578697374000000000000000000604082015260600190565b60208082526016908201527550726f706f73616c206973206e6f742061637469766560501b604082015260600190565b80820281158282048414176113fe576113fe61130f565b92915050565b60008261142157634e487b7160e01b600052601260045260246000fd5b500490565b601f82111561147057806000526020600020601f840160051c8101602085101561144d5750805b601f840160051c820191505b8181101561146d5760008155600101611459565b50505b505050565b815167ffffffffffffffff81111561148f5761148f611173565b6114a38161149d8454611293565b84611426565b6020601f8211600181146114d757600083156114bf5750848201515b600019600385901b1c1916600184901b17845561146d565b600084815260208120601f198516915b8281101561150757878501518255602094850194600190920191016114e7565b50848210156115255786840151600019600387901b60f8161c191681555b50505050600190811b01905550565b6000600182016115465761154661130f565b5060010190565b6060815260006115606060830186611067565b6020830194909452506001600160a01b039190911660409091015291905056fea26469706673582212203264173a49a62048421640afab77f81e204b3fadab09ba791851d8dbaac23ce664736f6c634300081c0033",
  "linkReferences": {},
  "deployedLinkReferences": {}
}